:020000040800F2
:10000000680F002001010008D9260008E51D00083E
:100010000123000805140008DD3800080000000076
:10002000000000000000000000000000CD300008CB
:100030008514000800000000512F00083534000826
:100040001701000817010008170100081701000830
:100050001701000817010008170100081701000820
:100060001701000817010008170100081701000810
:100070001701000817010008170100081701000800
:1000800017010008170100081701000817010008F0
:1000900017010008170100081701000817010008E0
:1000A00017010008170100081701000817010008D0
:1000B0007134000817010008ED340008170100082A
:1000C00017010008170100081701000817010008B0
:1000D0001701000815360008B53600085D3700081E
:1000E000170100081701000817010008DFF80CD0FD
:1000F00000F068FD0048004701450008680F002037
:1001000005480047FEE7FEE7FEE7FEE7FEE7FEE7FD
:10011000FEE7FEE7FEE7FEE7ED0000080048704757
:100120001C74000810B50446FFF7F8FF0068005D76
:1001300000F0010010BD000038B5D0E90221491ED1
:1001400001EB410102EBC1014268C1EB011102EB7D
:1001500081010268C1EB011102EB8102D0E9043197
:1001600001EB410103EB81013023A1F5527191FBB9
:10017000F3F4174D6C4302EBC41291FBF3F403FB51
:10018000141100921A2902DB124B1A4400920C221D
:1001900091FBF2F3104C6343009C04EBC3130093F8
:1001A00091FBF2F302FB13110C4A08E0491E40F2E6
:1001B000A324535C6343009C04EBC3130093002906
:1001C000F4DC0146684600F0D5FA009838BD00001E
:1001D0003F0C0F008051010067C20300207400082B
:1001E00040EA01039B0703D009E008C9121F08C0B9
:1001F000042AFAD203E011F8013B00F8013B521E39
:10020000F9D27047D2B201E000F8012B491EFBD2AF
:1002100070470022F6E710B513460A460446194611
:10022000FFF7F0FF204610BD30B505462A460B46C5
:1002300012F8010B13F8014B08B1A042F8D01CB121
:10024000002802D06D1CF1E7284630BD10B50446E9
:1002500004E00B7800F8013B03B1491C521EF8D2B0
:10026000204610BDCAB2401E10F8011F8A4202D0BB
:100270000029F9D100207047421C10F8011B002909
:10028000FBD1801A7047F0B480EA0102D40F42001B
:10029000B2EB410F02D20246084611464A0042D054
:1002A000C30DDDB2C1F3C752AD1A202D35DAC1F34B
:1002B000160141F4000204B15242C5F1200602FACF
:1002C00006F12A411044B3EBD05F23D0C4B1012D15
:1002D000A0EBC35009DCF0BC4FF0004202EAC3526D
:1002E000DBB200F5000000F0E2BA400000F18070DF
:1002F00000EBC350A0F1807040EAD170490009E0E2
:10030000490841EAC071A0EBC35000F50000400865
:1003100000EBC350F0BC00F0C1BA6142012202EB15
:100320004101001BF6E7F0BC704781F00041AAE7ED
:1003300080F00040A7E780EA010210B502F0004318
:10034000400022D04A001FD0010E01EB1261C0F321
:100350005600C2F3560240F4000042F40002A0FB33
:10036000022000047F39140400D0401C50EA1240DF
:1003700001D44000491EC2B20C0604EBD010401C50
:100380004008802A02D003E0002010BD20F00100C8
:10039000002900DA0020184310BD30B480EA0102C1
:1003A00002F0004530F0004221F0004013D090B13F
:1003B000C30DD40DC2F31601C0F31600E41A41F4C4
:1003C000000140F400027D34914201D3641C00E03E
:1003D0004900002C02DA30BC002070474FF40000C6
:1003E0000023914201D3891A034340084FEA410197
:1003F000F7D151B1914202D14FF0004105E002D254
:100400004FF0010101E06FF0010103EBC4502844FB
:1004100030BC00F043BA2DE9FE4F81EA030404F03A
:10042000004421F0004100944FF0000B23F0004302
:1004300050EA01045ED052EA03045BD0C3F30A54CD
:10044000C1F30A552C44A4F2F3340194A0FB0254E6
:10045000C1F3130141F48011C3F3130343F4801378
:1004600001FB024400FB034E840A970A44EA8154CC
:1004700047EA8357A4FB076802958D0A05FB0785A9
:100480004FEA932C04FB0C542705029D4FEA0658B3
:1004900047EA1637B5EB08056EEB070C870E920E90
:1004A00047EA811742EA8312A7FB0201B6EB0B0170
:1004B00064EB00042B0D43EA0C335E1844EB1C5034
:1004C000DA465146E7FB0201C5F313044FEA0B334A
:1004D00043EA14534FEA0432019C43EA0603A4F1B1
:1004E0000C040294009CCDE900B400F01DFA03B0A6
:1004F000BDE8F08F00200146F9E72DE9F04D81EAD3
:10050000030404F0004B21F0004514464FF0000AAC
:1005100023F0004150EA050220D054EA01021DD028
:10052000C5F30A570246C5F31303C1F31300C1F321
:100530000A5640F4801543F48013A7EB0608101BFD
:10054000D64608F2FD3873EB050002D308F1010826
:1005500001E092185B41B8F1000F03DA0020014678
:10056000BDE8F08D00204FF48011064684460EE071
:10057000171B73EB050705D3121B63EB050306433B
:100580004CEA010C49084FEA300092185B4150EAEE
:100590000107EDD152EA030012D082EA040083EA97
:1005A0000501084305D0101BAB4106D201220023F0
:1005B00006E000224FF0004302E06FF0010253100A
:1005C0001AEB06004CEB085110EB0A0041EB0B0153
:1005D000BDE8F04D00F099B996230022114600F0D5
:1005E00066B920F00040C10DC0F3160040F40000D1
:1005F0007F2901DA00207047962903DCC1F19601BA
:10060000C8407047963988407047C1F30A5210B508
:10061000C1F3130140F2FF3341F480119A4201DA31
:10062000002010BD40F233439A42A2F2334203DC71
:10063000524200F08EF810BD904010BD00F0004214
:1006400030F000400AD0C10D01F56071C0F3160012
:1006500042EA0151C2084007114370470020014699
:10066000704701F0004330B421F0004150EA01022C
:1006700006D00A0DA2F56072C1F31301002A02DC54
:1006800030BC00207047440F44EAC104C100E018A8
:1006900030BC00EBC25000F001B90000002801DBC3
:1006A000C0F10040002901DBC1F1004181427047E7
:1006B000002801DBC0F10040002901DBC1F100414D
:1006C0008842704730B50B460146002020220124A5
:1006D00009E021FA02F59D4205D303FA02F5491B10
:1006E00004FA02F52844151EA2F10102F1DC30BD26
:1006F0002DE9F05F0546002092469B468846064657
:10070000814640241BE0284641464746224600F0E9
:1007100020F853465A46C01A914110D31146184644
:10072000224600F061FA2D1A67EB01084F46224677
:100730000120002100F058FA17EB00094E41201E5D
:10074000A4F10104DFDC484631462A464346BDE8B1
:10075000F09F202A04DB203A21FA02F000217047A2
:1007600021FA02F3D040C2F1200291400843194619
:100770007047000010B500683C22B0FBF2F302FBAA
:100780001303B0FBF2F00B60B0FBF2F302FB1303B8
:10079000B0FBF2F018224B60B0FBF2F302FB130344
:1007A000B0FBF2F0021D8B600723B2FBF3F403FBF6
:1007B0001422800040F2B55300F66C308A61B0FB21
:1007C000F3F2B0FBF3F403FB1400443280084A61F7
:1007D000C8613B2802D3920700D0401C0022074C7E
:1007E00013460A61E25C824203D8801A5B1C0B61EB
:1007F000F8E7401CC860084610BD000038740008C7
:100800000FB4002300B589B00CA900910B996FF0CB
:100810000042CB601E4B06931E4B07930423CDE989
:1008200001321D4A089202466B46002000F092FAFF
:1008300009B05DF814FB70B586B006464FF0FF3086
:100840000091CDE90101002015460C460490324686
:10085000694604A8FFF7D4FF02460498211825B181
:1008600008B1084600E020462860049800280DD012
:10087000002A02DD0098884208D0081B0094CDE9C8
:1008800001043246694604A8FFF7BAFF06B070BDFE
:100890008D0F0008AB0F0008250100080029A8BF34
:1008A0007047401C490008BF20F00100704710B499
:1008B000B0FA80FC00FA0CF050EA010404BF10BC4E
:1008C000704749B1CCF1200421FA04F411FA0CF17B
:1008D00018BF012121430843A3EB0C01CB1D4FEAB4
:1008E00000614FEA102042BF002010BC704700EBAF
:1008F000C35010440029A4BF10BC7047401C4900DD
:1009000008BF20F0010010BC704710B5141E73F131
:10091000000408DA401C41F1000192185B411A43BF
:1009200001D120F0010010BD2DE9F04D92469B460B
:1009300011B1B1FA81F202E0B0FA80F220329046B1
:1009400000F052F904460F4640EA0A0041EA0B0162
:1009500053465A46084313D0114653EA010019D0B2
:10096000C8F140025046FFF7F4FE05460E465046D9
:100970005946424600F038F9084305D0012004E00A
:1009800020463946BDE8F08D0020054346EAE07672
:100990002C4337430A986305E40AA0EB08000022C1
:1009A000FD0A44EA47540A3002D500200146E9E72F
:1009B000010510196941DDE9084500196941BDE8E3
:1009C000F04DA2E72DE9FE4F804681EA0300C00FFB
:1009D0000C46009021F0004123F00045B8EB0200E6
:1009E000A94105D24046214690461C460B46024688
:1009F00023F00040104347D0270DC7F30A00C3F38C
:100A00000A510290401A019040286BDAC3F3130098
:100A100040F4801B0098924620B10023D2EB030AD9
:100A200063EB0B0B01985946C0F14002504600F0B1
:100A3000DBF806460D4650465946019A00F0E3F8A9
:100A400010EB08006141002487EA115284EAE77341
:100A50001A4340D0009A62B3019A012A4FEA075222
:100A600015DC001B61EB02014FF0004202EA075265
:100A7000CDE90042001C41F5801132462B46FFF7BC
:100A800053FF03B0BDE8F08F40462146F9E7001B55
:100A900061EB0201001C41F5801300185B41201836
:100AA000A2F5001747EB030140EAD570B6196D4176
:100AB00011E06D084FEA360645EAC0754FEA075265
:100AC000001B61EB0201001C41F5801149084FEA4F
:100AD00030000019514132462B4603B0BDE8F04FBB
:100AE000FFF713BF0098012240000023D0EB020261
:100AF00063EBE073009821464FEAE074B8EB000026
:100B000061EB0401E9E783F000435BE781F000411A
:100B100058E770B521F0004303430CD0C1F30A55E8
:100B20000024D5EB040564EB0403D617AD1AB341DA
:100B300002DB0020014670BD201841EB025170BD60
:100B40000EB5C10F80EAE0700844CA07002140F2E8
:100B500033438DE80E000A460B46FFF7E5FE03B06F
:100B600000BDC1F30A52C1F3130140F2FF3341F457
:100B700080119A4202DA00200146704740F2334366
:100B80009A42A2F2334202DC5242FFF7E2BD00F089
:100B90002BB8000030B5041E71F1000404DB4FF0E7
:100BA0000044404264EB0101141E73F1000405DBB4
:100BB0001C464FF00043524263EB0403994208BFC6
:100BC000904230BD064C074D06E0E06840F001035E
:100BD00094E8070098471034AC42F6D3FFF78AFA3E
:100BE0004474000864740008202A04DB203A00FAE8
:100BF00002F1002070479140C2F1200320FA03F374
:100C0000194390407047202A06DBCB17203A41FA5F
:100C100002F043EAE07306E041FA02F3D040C2F189
:100C20002002914008431946704700002DE9FF4F0C
:100C3000087883B09946FF2805D0491C2D2804D098
:100C40000024002008E000200BE00124F9E700EB7D
:100C5000800003EB4000491C0B78FF2BF7D104B157
:100C6000404200230293147819461D462D2C01D0D2
:100C70002B2C04D1521C2D2C13D000240294AA46F4
:100C80001478FF2C0FD00A25A3FB057801FB058102
:100C90004FF0000C03FB0C11521CE3194AEB01014D
:100CA000EEE70124EAE7814453EA010002D019F596
:100CB000C87F06DA03980021C0E9001107B0BDE83B
:100CC000F08F0025AE4E2F46DFF8B882184600F0B0
:100CD000CEF9CDE90001B9F1000002DAC9F1000452
:100CE00000E004460023A74A1AEB030B42EB045A28
:100CF00012E0E00707D02A46334638464146FFF760
:100D00008AFB074688462A46334610461946FFF7AF
:100D100082FB05460E466410002CEAD1DDE9000195
:100D2000B9F1000F5A46534606DAFFF7E6FB3A469A
:100D30004346FFF7E2FB05E0FFF76DFB3A4643460B
:100D4000FFF769FB029A0AB181F00041039AC2E9F8
:100D50000001B3E72DE9FF4F1F468DB0D7E90146EB
:100D60004FF0FF382E2045464FF000090B90B9692F
:100D70006D1C0E988847396A824688470028F6D14C
:100D8000BAF1FF3F0AD024F4D064002E11DDBAF18D
:100D90002B0F08D0BAF12D0F0BD102E0404611B055
:100DA0008DE744F48064B9696D1C0E9888478246CB
:100DB000761E6946600501D52D2000E02B208DF8B8
:100DC000000001F1010B0DF1200809E0B9696D1C6B
:100DD0000E98884782460F9844F40074761E05608A
:100DE000002E02DDBAF1300FF0D00B998A453ED1CA
:100DF00044F0800406E00F99681CA9F1010944F44D
:100E000000740860B9696D1C761E0E98884782468A
:100E10003028F0D02BE00B998A4505D1200603D469
:100E200044F08004761E18E0504602F0FDFE08B340
:100E30000DF11301761E44F400748B4508D2AAF11B
:100E400030000BF8010B200607D5A9F1010003E0E3
:100E5000200602D409F101008146A00502D50F99B0
:100E6000681C0860B9696D1C0E9888478246002E80
:100E7000D1DC53E0002E51DDBAF1650F02D0BAF19A
:100E8000450F4BD1A00549D5B9696D1C24F44074B8
:100E9000761E0E9888478246002E0CDD2B2804D043
:100EA000BAF12D0F07D144F48074B9696D1C0E9806
:100EB00088478246761EE00501D52D2100E02B21D2
:100EC00008F8011BCDF82C8021E00DF12901761ED8
:100ED00044F4007488450CD2AAF1300010F0FF00F1
:100EE00088F8000002D10B99884509D908F101085A
:100EF00006E0E00501D5244801E042F20F7081468A
:100F0000B9696D1C0E98884782460F980560002EBF
:100F100004DD504602F088FE0028D6D1F9690E980B
:100F20008847FF208BF8000088F80000002006901A
:100F300007904B466A4608A906A8FFF777FEA0056A
:100F400002D46FF001002AE714F0240F0AD0E00762
:100F500014D1DDE906123868031D3B600068C0E962
:100F600000120BE0DDE90601FFF77BFB0146E0071D
:100F700004D13868021D3A600068016028460EE717
:100F8000000014400000F03FF1D8FFFF426842B17A
:100F9000016811F8013B23B1521EC0E90012184646
:100FA00070470121C160881E704742685AB1C3680A
:100FB000016843B983688B4205D0491E521CC0E9C1
:100FC0000012002070474FF0FF3070472DE9F04DC0
:100FD00000231A461B1A8A4103DB00200146BDE8A4
:100FE000F08DC1F30A52C1F3130141F480154FF0A3
:100FF000000BD10702D100186D41521E0027044694
:1010000040F2FF11384601EB620A3E468046024636
:1010100000204FF48011FFF79CFBC2197141BB18EF
:1010200046EB0100B4EB030C75EB000C04D3E41A9F
:1010300065EB000517460E46241908F101006D41C5
:1010400080463428E3DDF91946EB0600091BA84168
:1010500003D24FF0FF32134601E0002213461BEB90
:10106000070046EB0A51BDE8F04DFFF74EBC0EB548
:1010700040F2334202920022CDE900221346FFF7EC
:1010800053FC03B000BD000000B591B0012148023F
:1010900001F08CFF0121042001F088FF01210846A6
:1010A00001F064FF4FF4004001F054FF00208DF880
:1010B00043000120ADF8400003208DF8420010A944
:1010C0002D4800F0C6FA0523012200212B4800F02C
:1010D000ADF800200B900E904FF460200D90012091
:1010E0008DF831008DF830008DF83C000BA92348B5
:1010F00000F074F821484C300090801506900020D4
:1011000004901F4801904FF4806007908020059064
:1011100000200290012003902020089000200A90D7
:101120004FF4805009906946164800F08DF901216E
:10113000144800F07DF90121104800F030F8012139
:101140000E4800F021F80D4800F0CCF800BF0B4825
:1011500000F03AF80128FAD0084800F0D3F800BFB0
:10116000064800F027F80128FAD00121034800F0D2
:10117000BEF811B000BD000000080140002401408D
:101180006A0000200800024021B1826842F001029A
:10119000826003E0826822F001028260704721B120
:1011A000826842F48072826003E0826822F4807276
:1011B00082607047014600208A6802F004020AB18A
:1011C000012000E000207047014600208A6802F0FC
:1011D00008020AB1012000E00020704730B5024645
:1011E0000020002350680F4C20400D790C6844EA21
:1011F00005242043506090680B4C2040D1E90254F4
:101200002C434D7944EA450420439060D06A20F491
:1012100070000C7C641EE4B2234340EA0350D062A9
:1012200030BD0000FFFEF0FFFDF7F1FFF0B5044612
:101230000D4600200021092D11DDE068A5F10A0608
:1012400006EB4607072606FA07F18843A5F10A06CA
:1012500006EB460603FA06F10843E0600CE020695D
:1012600005EB4507072606FA07F1884305EB450617
:1012700003FA06F108432061072A0FDA606B561E55
:1012800006EB86071F2606FA07F18843561E06EB73
:10129000860605FA06F10843606322E00D2A0FDA9C
:1012A000206BD61F06EB86071F2606FA07F1884338
:1012B000D61F06EB860605FA06F10843206310E008
:1012C000E06AA2F10D0606EB86071F2606FA07F173
:1012D0008843A2F10D0606EB860605FA06F10843DF
:1012E000E062F0BD816841F008018160704721B182
:1012F000826842F4A002826003E0826822F4A002C5
:1013000082607047816841F004018160704700008D
:101310001CB51A48008A1A49C988884203DA012094
:101320001849087002E00020164908701348007F31
:101330001349897C884204DB104890F82D0001286D
:101340000DD111480078401C0F49087008460078FC
:10135000032801DB012000E000200A4948700B4807
:1013600040890A490989CDE900100848C388044822
:10137000827CC188064800F02DF91CBD8400002045
:10138000B8000020CC0000201100002074000020D4
:1013900000F0010808B50121102001F007FE4FF40C
:1013A0000050ADF8000003208DF8020010208DF8E9
:1013B00003006946044800F04CF94FF4005102481C
:1013C00000F0DBF908BD00000010014008B501463F
:1013D0000020009003480090009808440090009876
:1013E000008808BD006C004008B500220092044A45
:1013F0000092009A02440092009A116008BD000019
:10140000006C004000BFFEE710B50021014802F06B
:1014100084F810BD0008004010B50448007810B1F1
:1014200000F06AFE01E000F05DFE10BDCC0000207F
:1014300021B1026842F00102026004E002684FF646
:10144000FE731A400260704710B50022026847F62A
:10145000F0739A430C6A8B6823430C6923434C69ED
:1014600023438C692343CC6923434C6A23438C6A0E
:1014700023431A430260CB6843600B6883604B6868
:10148000C36010BD704700000149C860704700008C
:101490000020024030B5044604254FF4302000F00F
:1014A000C5F80546042D17D10C48006940F002002C
:1014B0000A49086108464461006940F0400008613B
:1014C0004FF4302000F0B2F805460448006941F6B8
:1014D000FD71084001490861284630BD00200240E6
:1014E00004200B49C96801F0010109B101200EE097
:1014F0000749C96801F0040109B1022007E0044965
:10150000C96801F0100109B1032000E00420704710
:10151000002002400348006940F080000149086152
:10152000704700000020024070B504460D460426B6
:10153000F00200F07BF80646042E11D1094800693C
:1015400040F00100074908612580F00200F06EF8C4
:1015500006460448006941F6FE71084001490861E9
:10156000304670BD002002400146088870470000E8
:1015700010B50F48FFF7F8FF0E49C8800C48801CD3
:10158000FFF7F2FF0B4988740948001DFFF7ECFFD5
:101590000949C8800648801DFFF7E6FF0649088113
:1015A00003480830FFF7E0FF0349488110BD000001
:1015B00000F00108B8000020740000200248034930
:1015C0004860034848607047230167450020024097
:1015D000AB89EFCD2DE9F04704460F4615461E4670
:1015E000DDE90889FFF7EAFF3520FFF74DFF2046C8
:1015F000FFF750FF39462046FFF796FF2946A01C0B
:10160000FFF792FF3146201DFFF78EFF4146A01DD8
:10161000FFF78AFF494604F10800FFF785FF3520F0
:10162000FFF732FFFFF776FFBDE8F08700B502460F
:101630000423FFF755FF034603E0FFF751FF03467E
:10164000521E012B01D1002AF7D102B905231846F9
:1016500000BD2DE9F04102460025002600200023B0
:101660000024002791F803C00CF00F0591F803C087
:101670000CF0100CBCF1000F03D091F802C04CEA42
:10168000050591F800C0BCF1000F31D014680020AE
:101690002BE04FF0010C0CFA00F3B1F800C00CEA9B
:1016A00003069E4220D183004FF00F0C0CFA03F783
:1016B000BC4305FA03FC4CEA040491F803C0BCF1F6
:1016C000280F06D14FF0010C0CFA00FCC2F814C030
:1016D0000AE091F803C0BCF1480F05D14FF0010CAE
:1016E0000CFA00FCC2F810C0401C0828D1D31460CA
:1016F000B1F800C0BCF1FF0F34DD546800202EE0CB
:1017000000F1080C4FF0010808FA0CF3B1F800C022
:101710000CEA03069E4221D183004FF00F0C0CFA15
:1017200003F7BC4305FA03FC4CEA040491F803C038
:10173000BCF1280F05D100F1080C08FA0CF8C2F82A
:10174000148091F803C0BCF1480F07D100F1080CD8
:101750004FF0010808FA0CF8C2F81080401C082865
:10176000CED35460BDE8F0810246002093680B4060
:101770000BB1012000E0002070474161704701611A
:1017800070470AB1016100E04161704710B58021E6
:101790001048FEF73EFD0F48803000210160416097
:1017A00001816E388167C167A0F880106E30416199
:1017B0008161818381778038A0F89F10A0F8A11003
:1017C0000020044981F8A30081F8A40081F8A50055
:1017D00010BD00007A05002070B588B0834890F8ED
:1017E000A40008B908B070BD0020804981F8A400A9
:1017F0007FA002F075F87D488030FEF73DFD062899
:1018000037D37A4890F881003038784991F88010C1
:10181000303901EB810100EB41000830C4B2182CD3
:1018200002DBA4F1180000E02046C4B26F4890F833
:10183000830030386D4991F88210303901EB810115
:1018400000EB4100C5B2694890F88500303867491F
:1018500091F88410303901EB810100EB4100C6B2F0
:101860002B4622466149803168A0009602F038F884
:1018700002E072A000F05AF95C4890F8A500002838
:101880007ED0002159488A3000F08CFE70490860F3
:1018900001215648943000F085FE6E4908606E497B
:1018A0006B480068FEF7FAFE11D36C49684800687F
:1018B000FEF7FEFE0BD36A4966480068FEF7EEFEAF
:1018C00005D3684963480068FEF7F2FE07D266A0B8
:1018D00000F02CF90020454981F8A50082E700209E
:1018E0000590069007900290039004905848006875
:1018F000FEF7A4FE62A2CDE900010C2105A801F0CB
:10190000FFFF54480068FEF799FE5DA2CDE9000193
:101910000C2102A801F0F4FF0120102302AA1946AD
:1019200000902D2001F07AF902A8FEF7A5FC2D21E8
:1019300001EBC000C4B2012000902C4890F8A12017
:1019400010231946204600F0FDFF0120102305AAB0
:10195000202100902D2001F061F905A8FEF78CFCF4
:101960002D2101EBC000C4B2012000901F4890F867
:101970009F2010232021204600F0E4FF344800E09F
:101980001EE00068FEF75AFE184A9F32CDE90001BA
:10199000A2F115013CA001F0A3FF2E480068FEF75C
:1019A0004DFE124AA132CDE90001A2F10D013FA086
:1019B00001F096FF46A001F093FF00F0C1F912E09C
:1019C0004EA000F0B3F80120102355A21946009054
:1019D0002D2001F023F90120102351A22021009095
:1019E0002D2001F01BF900BFFCE600007A05002065
:1019F0000D0A5B475053205061727365645D202D62
:101A00002D2D2D2D2D2D2D2D2D0D0A00555443201E
:101A100054696D653A20257320A1FA204265696AF0
:101A2000696E672054696D653A20253032643A2525
:101A30003032643A253032640D0A00005554432098
:101A400074696D6520696E76616C696400000000E0
:101A500050000020540000200000B4C20000B44236
:101A6000000034C3000034434C61742F4C6F6E206F
:101A70006F7574206F662072616E676500000000EC
:101A8000252E3566000000004C617469747564652C
:101A90003A2025732025732028446563696D616CA5
:101AA0003A20252E3566290D0A0000004C6F6E671E
:101AB00069747564653A2025732025732028446570
:101AC00063696D616C3A20252E3566290D0A000088
:101AD0002D2D2D2D2D2D2D2D2D2D2D2D2D2D2D2D36
:101AE0002D2D2D2D2D2D2D2D2D2D2D2D2D2D2D2D26
:101AF0002D2D2D2D2D2D2D2D0D0A0000506F7369CC
:101B000074696F6E20696E76616C69642028636801
:101B100065636B20475053207369676E616C2900C1
:101B20004E6F205369676E616C20000010B504464B
:101B3000214603A001F0D4FEFFF728FE10BD0000EF
:101B40005B475053204572726F725D2025730D0AFA
:101B500000000000F8B5624890F8A30020B160488A
:101B6000FEF78AFB1E2802D2FFF710FEF8BD5DA12A
:101B70005B48FEF759FB28B95CA0FFF7D7FFFFF7DA
:101B800005FEF3E70020564981F8A3005EA001F0AE
:101B9000A7FE0024002600270020009000BF99E047
:101BA00057B95DA14E48FEF73FFB0446002C71D1AA
:101BB0005AA0FFF7BBFFD9E7641C57A12046FEF7E8
:101BC00033FB06461EB95AA0FFF7B0FFCEE7301B25
:101BD0000A2801DA301B00E00A20C5B2072F6FD2B5
:101BE000DFE807F06E04142434445400092D01DAB0
:101BF000284600E009200246214639488030FEF799
:101C000025FB0021364880F889105AE0092D01DAB9
:101C1000284600E009200246214631488A30FEF776
:101C200015FB00212E4880F893104AE0012D01DABF
:101C3000284600E001200246214629489F30FEF751
:101C400005FB0021264880F8A0103AE00A2D01DAB1
:101C5000284600E00A200246214621489430FEF73B
:101C6000F5FA00211E4880F89E102AE0012D01DAC5
:101C7000284600E00120024621461948A130FEF71F
:101C8000E5FA0021164880F8A2101AE0012D02DAC8
:101C9000284601E01CE00120024621466846FEF786
:101CA000D5FA00208DF801009DF80000312801D1FF
:101CB000012000E000200A4981F8A50001E0FFE7CB
:101CC00000BF00BF34460120054981F8A40000BFD1
:101CD000781CC7B2062F7FF763AF00BF46E700004E
:101CE0007A05002024475047474100004E6F74207A
:101CF00047504747412073656E74656E63652C20BD
:101D0000736B6970000000005B475053205261778D
:101D10005D2025730D0A00002C0000004E6F20731B
:101D20006570617261746F7220666F756E64000019
:101D30004669656C64206D697373696E67000000A5
:101D4000F0B597B0402107A8FEF763FA0E48006887
:101D5000FEF774FC04460D460C480068FEF76EFC66
:101D600006460B48CDE904450690801E09A2CDE940
:101D700000610290402107A801F0C2FD07A801F010
:101D8000E1FC17B0F0BD000054000020500000201E
:101D90001B060020CEB3B6C83A252E356625732C17
:101DA000BEADB6C83A252E356625730D0A00000073
:101DB00010B500BF094800884FF47A7100FB01F4A8
:101DC000074801F0B6FB044400200549243108808F
:101DD000322002F02FFB204610BD00004C000020F6
:101DE0000008004000BFFEE7032000BF011EA0F175
:101DF0000102D0B2FAD1704710B54FF48051784843
:101E0000FFF7B2FCB0B10020764908700024764894
:101E1000007828B1002074490870012073490870C7
:101E20007348007808B30020714908700B206F498F
:101E300008701AE06B48007868B9641C0A2C14DD3D
:101E400000240120684908700020694908700120B9
:101E50006449087009E0641CB4F57A7F05DD002050
:101E6000614908700120624908704FF400515C48D4
:101E7000FFF77AFCB8B100205E4908705E4908801F
:101E80005E48007828B100205C490870022057495C
:101E900008705B48007870B3002059490870022030
:101EA0005249087027E053480078A0B9524800888A
:101EB000401C51490880084600880A281BDD002084
:101EC000088001204D49087000204D49087001200C
:101ED000484908700FE048480088401C464908807F
:101EE00008460088B0F57A7F05DD00204349087078
:101EF0000120434908704FF480413948FFF734FC12
:101F000028B100203F4908703F4908802DE03D4836
:101F1000007888B93C480088401C3B490880084646
:101F200000880A2821DD0020088003202F4908703E
:101F300001203449087018E033480088B0F5FA7F72
:101F400005DA31480088401C2F4908800DE02F48F1
:101F50000088401C2D49088008460088052804DDBB
:101F6000002008800320214908704FF400411C48DC
:101F7000FFF7FAFB28B100202549087025490880A1
:101F80002DE02348007888B922480088401C214968
:101F90000880084600880A2821DD002008800420E7
:101FA0001249087001201A49087018E01948008881
:101FB000B0F5FA7F05DA17480088401C15490880FB
:101FC0000DE015480088401C134908800846008829
:101FD000052804DD0020088004200449087010BD95
:101FE000000C014029000020280000203E000020B5
:101FF0002A0000202F0000202C0000202E000020AE
:102000003000002037000020320000203400002083
:102010003D000020380000203A0000202DE9F84F54
:102020004FF0000A0020009083461B490888FEF705
:10203000D3FA82464FF08B415046FEF7AEF9044684
:102040001649FEF778F9824651461448FEF76DF9B5
:10205000054629465046FEF7A0F904461049FEF70A
:102060006AF900900098FEF7E9FA06460D4A0E4B11
:1020700002F0F2FB044600220C4BFEF7CCF980463E
:10208000FEF7C3FA1FFA80FB42F20F70834500DDB2
:1020900083465846BDE8F88F6A000020333353402A
:1020A00000401C46BF7D1D386744E3BF0088E34005
:1020B00008B50121082000F079FF10208DF80300F9
:1020C0000120ADF8000003208DF8020069460448A5
:1020D000FFF7BFFA01210248FFF74FFB08BD0000E0
:1020E000000C014010B5002201210248FFF749FB16
:1020F00010BD0000000C014010B50122114602483D
:10210000FFF73FFB10BD0000000C01402DE9F05F20
:1021100006460F4690469946DDE90AAB3B2000F0A3
:102120004BF804463C2000F047F8054645EA0420F9
:1021300000B230803D2000F03FF804463E2000F021
:102140003BF8054645EA042000B238803F2000F005
:1021500033F80446402000F02FF8054645EA0420F5
:1021600000B2A8F80000432000F026F804464420FE
:1021700000F022F8054645EA042000B2A9F8000064
:10218000452000F019F80446462000F015F80546F1
:1021900045EA042000B2AAF80000472000F00CF83D
:1021A0000446482000F008F8054645EA042000B23D
:1021B000ABF80000BDE8F09F70B5044600F0FCF8F5
:1021C000D02000F0E2F8204600F0DFF800F0F4F84C
:1021D000D12000F0DAF800F0B2F80546012000F056
:1021E000C8F800F0F7F8284670BD00007CB500255F
:1021F0002D48811E031F821FCDE90010891F0A3858
:10220000FFF784FF28482838B0F91E0026492839EE
:10221000B1F92010084424492839B1F92210461890
:10222000032096FBF0F0A0F5FA7000B21E492839A1
:10223000C8850846C08D1D491D4A127821F8120034
:102240001B480078401C052190FBF1F201FB1200B5
:1022500017490870002005E0144931F910100D44A9
:10226000411CC8B20528F7DB052095FBF0F004B24D
:1022700014F5967F02DBB4F5617F05DD01200A4984
:10228000283981F82D0004E000200749283981F819
:102290002D000548283890F82D30B0F92E10224630
:1022A00004A001F01DFB7CBDAC00002070050020E7
:1022B00040000020B5A5B4CEC6BDBEF93A256420C5
:1022C0007C2035B4CEC6BDBEF93A2564207C206D95
:1022D00070755F746573743A25640D0A0000000020
:1022E00008B506480078012806D1102317220021DE
:1022F0000090602000F0C6FB08BD0000CC0000206C
:1023000000BFFEE710B540210448FFF72DFA044650
:102310000A2002F0BBF8204610BD00000008014072
:1023200010B5012000F070F8012000F05FF8FFF711
:10233000E9FF0446002000F059F8204610BD70B5B2
:102340000025012000F060F800240EE0012000F0DC
:102350004DF8FFF7D7FF012802D180202041054327
:10236000002000F043F8601CC4B2082CEEDB2846C5
:1023700070BD10B50446204600F046F8012000F07C
:1023800035F8002000F032F810BD70B50546002485
:102390000DE08021214101EA050000F035F801201F
:1023A00000F024F8002000F021F8601CC4B2082CD2
:1023B000EFDBFFF7B5FF70BD10B5012000F024F88A
:1023C000012000F013F8002000F01EF8002000F0BB
:1023D0000DF810BD10B5002000F016F8012000F037
:1023E00005F8012000F010F810BD000010B50446FB
:1023F000224620210348FFF7C4F90A2002F046F8DC
:1024000010BD00000008014010B5044622464021DE
:102410000348FFF7B6F90A2002F038F810BD0000B3
:102420000008014010B50121080700F0AFFD0121AF
:10243000C80600F0ABFD012000F084FD30A001F0E3
:102440004FFA0420FEF7C2FF4AF2A551884242D05B
:102450002BA001F045FA012000F0D6FD2AA001F0E2
:102460003FFA00BF612000F0B1FD0128FAD128A099
:1024700001F036FA4FF4007000F0D2FD26A001F012
:102480002FFA012000F0C6FD25A001F029FA00F086
:102490000BFE25A001F024FA00F0FCFD24A001F0C1
:1024A0001FFA49F63F4000F0E5FD23A001F018FABD
:1024B00000F0F0FD22A001F013FA00F04DF822A088
:1024C00001F00EFA4AF2A5510420FEF78DFF20A07C
:1024D00001F006FA12E0012000F096FD00BF612035
:1024E00000F074FD0128FAD1400200F099FD0120AE
:1024F00000F090FD00F0D8FD00F0CCFD10BD000014
:1025000052544331200A000052544332200A000042
:1025100052544333200A000052544334200A00002E
:1025200052544335200A000052544336200A00001A
:1025300052544337200A000052544338200A000006
:1025400052544339200A00005254433130200A00CB
:102550005254433131200A0010B58CB01048008825
:10256000A0F26C7006900E484088401E05900C4802
:10257000808804900A48C088039009480089029026
:1025800007484089019001A8FDF7D6FDA0F5E14478
:10259000204600F061FD00F07DFD0CB010BD000094
:1025A000740000202DE9FE4F0446894624B12046E0
:1025B000FDF762FE052805D22DA0FFF7B7FA00202F
:1025C000BDE8FE8F2E212046FDF74CFE054625B9BD
:1025D0002CA0FFF7ABFA0020F2E7B9F1000F01D011
:1025E000032000E002200646291B701C814204DA09
:1025F0002CA0FFF79BFA0020E2E700200290324671
:10260000214602A8FDF722FE00270EE0FDF786FD19
:10261000006802A9C95D405C202804D028A0FFF70B
:1026200085FA0020CCE7781CC7B2B742EEDB02A8DF
:1026300001F0A9FE0746FEF714F88246002000903C
:102640000190A019281A021DA1196846FDF7FEFD88
:10265000684601F098FE0746FEF703F883461D49D9
:102660005846FDF79AFE07465146FDF70CFEA7E7D0
:102670004E4D454120737472696E6720696E7661B4
:102680006C6964004E6F20646563696D616C2070D5
:102690006F696E7420696E204E4D454120737472CF
:1026A000696E67004E4D4541206465677265652F10
:1026B0006D696E75746520696E76616C6964000081
:1026C000446567726565206973206E6F7420646964
:1026D00067697400000070427047000070B5002107
:1026E00000230F22C47804B3154C246804F4E0647A
:1026F000C4F5E064210AC1F10403CA40447804FA35
:1027000003F184781440214309010E4C0678A15549
:10271000047804F01F050124AC4005786D11AD006C
:1027200005F1E025C5F8004109E0047804F01F0533
:102730000124AC40044D0678761145F8264070BD62
:102740000CED00E000E400E080E100E070B5002462
:102750000CE0002506E00020074901EBC501085503
:10276000681CC5B2802DF6DB601CC4B2082CF0DBFF
:1027700000F08EF870BD0000D6000020F0B51446C1
:102780000B46CF1701EB5777C7F3C702CF1701EB03
:102790005777FF10A1EBC707FEB20123B340DDB2AC
:1027A0004CB1134B03EBC0039B5C2B43104F07EB67
:1027B000C007BB541AE00E4B03EBC0039B5CDB432A
:1027C0000B4F07EBC007BB54094B03EBC0039B5CEB
:1027D0002B43074F07EBC007BB54054B03EBC0036C
:1027E0009B5CDB43024F07EBC007BB54F0BD00000E
:1027F000D600002010B580210A48FEF7C0FF402116
:102800000848FEF7BCFFFFF7EFFA80210548FEF706
:10281000B4FFFFF7E9FA40210248FEF7AEFFFFF7E9
:10282000E3FA10BD000C014010B580210648FEF708
:10283000A4FF40210448FEF7A2FFFFF7D5FA80214C
:102840000148FEF79CFF10BD000C014010B580212F
:102850000848FEF794FFFFF7C7FA40210548FEF746
:102860008EFFFFF7C1FA40210248FEF786FFFFF70F
:10287000BBFA10BD000C014010B50246012000E07B
:1028800050430B1EA1F10104E1B2F9D110BD0000CB
:1028900070B500242BE004F1B001C8B2002100F0B3
:1028A000E4F90021084600F0E0F90021102000F0D2
:1028B000DCF9FFF79FFF782000F01EF8FFF7C6FF56
:1028C000402000F019F8FFF7C1FF002509E0094991
:1028D00001EBC501085D00F00FF8FFF7B7FF681CBA
:1028E000C5B2802DF3DBFFF79FFF601CC4B2082C3C
:1028F000D1DB70BDD600002070B5044600251BE07A
:1029000004F0800020B180210D48FEF738FF03E07D
:1029100080210B48FEF731FFFFF766FA4021084897
:10292000FEF72DFFFFF760FA40210548FEF725FF6F
:102930006006040E681CC5B2082DE1DB70BD000006
:10294000000C01402DE9FE4F0746884692461C4682
:102950000197CDF80080082C02D14FF006091FE046
:102960002046E31704EB5373DB1021464FEAE47C67
:1029700004EB5C7C4FEAEC0CA4EBCC0CBCF1000F3C
:1029800002D04FF0010C01E04FF0000C63442246EE
:1029900004EBD27C4FEA6C0C03FB0CF303F0FF0951
:1029A000AAF12000C6B200255EE0082C07D106EB94
:1029B0004600304901EB400010F805B01DE00C2C3A
:1029C00007D106EB46002C4901EB800010F805B05A
:1029D00013E0102C05D1294800EB061010F805B0C3
:1029E0000BE0182C07D106EBC600254901EB80004F
:1029F00010F805B001E0BDE8FE8F002002901CE059
:102A00000BF0010028B1414638460C9AFFF7B6FE9C
:102A100009E00C9808B9012000E000200246414678
:102A20003846FFF7ABFE4FEA6B0B08F1010000F0F0
:102A3000FF080298401CC0B2029002980828DFDB11
:102A4000781CC7B2082C0BD004EBD4714A10019942
:102A5000791A8A4204D1019F00980830C0B20090D0
:102A6000DDF80080681CC5B24D459EDBFFF710FF06
:102A700000BFC0E77C520008A454000818590008A1
:102A8000085F00082DE9FC4F0746884616461C469D
:102A9000BB46CDF804802046E21704EB5272D210F8
:102AA0002146E31704EB5373DB10A4EBC3030BB114
:102AB000012300E000231A44624392B200920025F1
:102AC00055E0102C05D12C4800EB461010F805A05D
:102AD0001BE0182C07D106EBC600284901EBC0000B
:102AE00010F805A011E0202C05D1254800EBC610F8
:102AF00010F805A009E0402C05D1224800EB462043
:102B000010F805A001E0BDE8FC8F4FF000091CE0C3
:102B10000AF0010028B1414638460B9AFFF72EFE15
:102B200009E00B9808B9012000E000200246414668
:102B30003846FFF723FE4FEA6A0A08F1010000F069
:102B4000FF0809F1010000F0FF09B9F1080FDFDB10
:102B5000781CC7B2A7EB0B00A04204D15F460198D6
:102B60000830C0B20190DDF80480681C85B200987E
:102B70008542A6DB00BFC6E7646C0008447000080D
:102B80008C7000080C7100082DE9FF4F83B00646D9
:102B900091461F46DDE9104A4FF0000B082C01D189
:102BA0004FF0020B002532E0781B401EC1B20A2014
:102BB000FFF762FEB9FBF0F00A21B0FBF1F201FB76
:102BC0001208B8F1000F0FD104EBD4710BEB6101C7
:102BD00001FB0561C8B223463022CDF800A0029463
:102BE0000499FFF7AFFE10E004EBD4710BEB610129
:102BF00001FB0561C8B208F13001CAB22346CDF825
:102C000000A002940499FFF79DFE681CC5B2BD4266
:102C1000CADBFFF73DFE07B0BDE8F08F2DE9F843B2
:102C200006460F4614461D46DDF8208013E0CDF819
:102C3000008022782B4639463046FFF783FE082D68
:102C400002D1B01DC6B205E0284605EBD07106EBF7
:102C50006101CEB2641C2078202802DB20787E2817
:102C6000E5DDFFF715FEBDE8F88370B505460C46B7
:102C7000FFF7C0FD7820FFF73FFEFFF7E7FD1CB12F
:102C80004020FFF739FE02E00020FFF735FEFFF796
:102C9000DDFD2846FFF730FEFFF7D8FDFFF7C4FD46
:102CA00070BD08B50120102300221946009010467F
:102CB000FFF7E8FE0120102302461946009018464F
:102CC000FFF7E0FE01201023022219460090202089
:102CD000FFF7D8FE01201023032219460090302070
:102CE000FFF7D0FE012010233A2219460090402021
:102CF000FFF728FEFFF7CCFD08BD38B50446012CD0
:102D00001FD110233E22002100900846FFF71AFE33
:102D1000012010232022194600900020FFF712FE08
:102D2000012010232022114600900020FFF70AFE08
:102D3000012010232022302100900020FFF702FE06
:102D400000BF00BF38BD08B5012010230F220021AD
:102D500000901846FFF796FE012010231A46002126
:102D600000902020FFF78EFE012010231122002169
:102D700000903020FFF786FE012010233A22002128
:102D800000904020FFF7DEFD08BD000038B5044686
:102D90003F480078012806D002280DD0032814D01F
:102DA000042824D11AE001201023202200210090C1
:102DB0000846FFF7C7FD1BE001201023202219461B
:102DC00000900020FFF7BEFD12E00120102320221A
:102DD000114600900020FFF7B5FD09E00120102307
:102DE0002022302100900020FFF7ACFD00E000BF62
:102DF00000BF012C02D0022C42D120E00120102380
:102E00003E22002100900846FFF79CFD0120102380
:102E10002022194600900020FFF794FD0120102386
:102E20002022114600900020FFF78CFD0120102386
:102E30002022302100900020FFF784FD21E00120B6
:102E400010232022002100900846FFF77BFD01207F
:102E500010233E22194600900020FFF773FD012049
:102E600010232022114600900020FFF76BFD012067
:102E700010232022302100900020FFF763FD00E0A6
:102E800000BF00BF02480470FFF702FD38BD00001C
:102E90001000002008B5012010231B220021009003
:102EA0001846FFF7EFFD012010231C22002100909F
:102EB0002020FFF7E7FD012010230D2200210090C4
:102EC0003020FFF7DFFD012010230E2200210090AB
:102ED0004020FFF7D7FD012010233A220021009067
:102EE0005020FFF72FFD0120102303A200210090A6
:102EF0005820FFF793FE08BD7878780008B50120C8
:102F000010231B22002100901E20FFF7BBFD012093
:102F100010231C22002100902E20FFF7B3FD08BDD6
:102F200010B50021054800F021FB0020044908806D
:102F30000121024800F0F1FA10BD00000008004035
:102F40004C000020014908627047000000000E425A
:102F50007047000001460020034A506820F44040BA
:102F600008435060704700000010024029B1064A33
:102F700052690243044B5A6104E0034A5269824396
:102F8000014B5A61704700000010024029B1064A07
:102F9000D2690243044BDA6104E0034AD2698243F6
:102FA000014BDA61704700000010024029B1064A67
:102FB00092690243044B9A6104E0034A9269824396
:102FC000014B9A61704700000010024010B50146A5
:102FD0000022002300204A11012A02D1094C236853
:102FE00006E0022A02D1074C236A01E0054C636A1D
:102FF00001F01F02012494401C400CB1012000E0AC
:10300000002010BD00100240014908607047000018
:103010008004424201490860704700003C0442427B
:103020000249096A0143014A1162704700100240D7
:103030000348008840F010000149088070470000F4
:1030400004280040034800884FF6EF71084001490A
:10305000088070470428004000B50246FFF7E8FFEB
:10306000100C03490880091D0A80FFF7EBFF00BD23
:103070001828004000B50246FFF7DAFFC2F303400C
:1030800003490880091D0A80FFF7DCFF00BD00002E
:103090000828004000BF0348008800F020000028F6
:1030A000F9D0704704280040074800884FF6F771B0
:1030B00008400549088000BF0348008800F0080068
:1030C0000028F9D070470000042800407047000035
:1030D00000B591B000F064F8402101A8FDF799F81F
:1030E000174890F82D00012827D116480078401C79
:1030F000144908701448007801280CD1134948720B
:1031000010230622302100905020FFF7BBFC10A0B6
:1031100000F018FB0AE000200C494872012010233F
:103120000722302100905020FFF7ACFC05480078C2
:10313000022802DB01200449087011B000BD000024
:10314000840000200E0000200F000020CC00002092
:10315000B5F8B5B9C7EBD7A2D2E2A3A10D0A00001A
:1031600000B5A1B00748037F028A07A101A800F0BB
:10317000DFFB01A800F0E6FAFEF7ECFCFEF72CFB03
:1031800021B000BD84000020B9E2D5D53A202564E5
:103190000D0ABEE0C0EBA3BA256420434D0D0A0022
:1031A00070B501F005F904460D480068201A96280C
:1031B00003D9FFF71BF80A480460FEF72FFF0949FF
:1031C00008820948C068201A962808D900F032FB06
:1031D0000546FDF706FA034908770348C46070BD49
:1031E00048000020840000205805002010B50F483A
:1031F0000078022816D100200C4908700C4800788D
:10320000012801D1022000E0012009490870FFF7E0
:103210009DFA052001F00EF905480078012801D13A
:10322000FFF73FFD0248007810BD00003E0000207F
:103230000C00002010B50C480078022810D10020A6
:103240000949087009480078401C08490870084678
:103250000078022804DDFFF779FA0120034908709D
:103260000248007810BD00003E0000200A00002047
:103270000B480078022810D10A48007868B900206D
:103280000749087008480078401C0749087008463C
:103290000078032801DD012008700348007870479A
:1032A0003E000020070000200B00002010B500F0B9
:1032B00001F810BD0CB50020019000903348006863
:1032C00040F480303149086000BF3048006800F4A5
:1032D000003000900198401C0190009818B90198A6
:1032E000B0F5A06FF1D12948006800F4003010B1AA
:1032F0000120009001E0002000900098012843D1B7
:103300002348006840F01000214908600846006822
:1033100020F0030008600846006840F002000860E2
:103320001A4840681949486008464068486008469D
:10333000406840F4806048600846406820F47C1093
:1033400048600846406840F4E81048600846006855
:1033500040F08070086000BF0C48006800F000700A
:103360000028F9D00948406820F003000749486068
:103370000846406840F00200486000BF03484068CB
:1033800000F00C000828F9D10CBD0000001002402C
:10339000002002401CB501201021CDE90010094891
:1033A000C288032320215A20FFF7EEFB01201021C1
:1033B000CDE900100348827C03235A20FFF7E4FB89
:1033C0001CBD0000B80000201CB501201021CDE973
:1033D00000100D48C288022320211E20FFF7D4FBD5
:1033E000012010233A22202100902E20FFF7AAFA74
:1033F00001201021CDE90010034802890223202179
:103400003E20FFF7C1FB1CBD74000020042808D13A
:103410004FF0E021096941F004014FF0E022116111
:1034200007E04FF0E021096921F004014FF0E022AC
:103430001161704700B500F0C1FF00BD10B509482B
:10344000006840F0010007490860084640680649E6
:10345000084004494860FFF729FF4FF00060034926
:10346000086010BD001002400000FFF808ED00E009
:1034700010B50121880700F05FF838B1FEF7BCFCF9
:1034800000F09CFF0121880700F044F810BD7FB5D3
:1034900004460D4601210846FFF778FD0020ADF8EF
:1034A0000A00ADF80600ADF80850ADF804408DF8FC
:1034B0000C0001A94FF0804000F05AF8012211469B
:1034C000900700F04AF81C208DF8000001208DF8CC
:1034D00003008DF8010002208DF802006846FFF716
:1034E000FDF80121880700F018F87FBD10B5012113
:1034F000064800F021F840B10121044800F00AF824
:1035000003480088401C0249088010BD00080040A4
:103510004C000020CA430282704721B1028842F069
:103520000102028004E002884FF6FE731A40028016
:1035300070470146888C704730B502460020002352
:103540000024158A05EA0103958905EA010413B1EF
:103550000CB1012000E0002030BD1AB183890B437B
:10356000838102E083898B43838170478184704724
:10357000002202881D4B98420ED01D4B98420BD062
:10358000B0F1804F08D01B4B984205D01A4B98429F
:1035900002D01A4B984204D14FF68F731A404B88D1
:1035A0001A43174B984207D0164B984204D04FF657
:1035B000FF431A40CB881A4302808B8883850B888F
:1035C00003850A4B98420BD0094B984208D00E4B0A
:1035D000984205D00D4B984202D00D4B984201D134
:1035E0000B7A03860123838270470000002C014080
:1035F000003401400004004000080040000C00407E
:103600000010004000140040004001400044014010
:103610000048014010B540F22551224800F0D6F88C
:1036200000283DD01F4800F0FBF8C4B2242C02D182
:1036300000201D4908801C4801880088401C1A4A47
:1036400010801A4844540078242822D11748C078A2
:1036500047281ED11548007947281AD113484079C8
:10366000412816D10A2C14D180211148FCF7D1FD34
:103670000D4802880D490E48FCF7B2FD01200C49A7
:1036800081F8A300002008490880C8210748FCF7FA
:10369000C0FD05480088C82802DBC8200249088010
:1036A00010BD00000038014062000020200600200C
:1036B0007A05002010B540F22551124800F086F836
:1036C000F0B1104800F0ACF8C4B20F4800887F2871
:1036D0000ADA0D490888411C0B4A11800B490C5429
:1036E00000201288885402E0002007490880012049
:1036F0000749087040F22551024800F04BF800BF1E
:1037000010BD00000044004070000020E8060020CA
:103710007200002010B5044600BF8021084800F068
:1037200048F80028F9D02146054800F07EF800BF8F
:103730004021034800F03DF80028F9D010BD0000FA
:103740000044004010B5044603E014F8010BFFF7F5
:10375000E1FF20780028F8D110BD000010B540F23C
:1037600025510A4800F032F878B1084800F058F8BE
:10377000C4B2312C03D10120054908703524322C04
:1037800003D1002002490870352410BD00480040D4
:103790000500002010B50022002340F66A14A14263
:1037A00000D100BF0A1201249440A3B2DC4304807C
:1037B00010BD02460020B1F5007F00D100BF138884
:1037C0000B400BB1012000E00020704770B50246AD
:1037D000002400230025002040F66A16B14200D1E3
:1037E00000BFC1F3421501F01F03012606FA03F3DF
:1037F000012D02D19689334006E0022D02D1168AAE
:10380000334001E0968A33400C12012606FA04F494
:103810001688344013B10CB1012000E0002070BDC7
:1038200001468888C0F308007047C1F3080282800F
:10383000704700002DE9F84F4FF0000A0024A3461E
:10384000A14631E0012021490860142000F01EFE4D
:1038500000201F49C1F8840100BF1C48743800686B
:103860000028FAD0FFF75CFB641C00BF17487438CF
:1038700000680128FAD0FDF7C7FDFEF799FA8246E5
:103880005046FCF7A9FE0090FCF7D8FE0746002240
:10389000104BFCF732FE0546FCF7E3FE8346494633
:1038A0005846FCF7F0FC8146052CCBD14846FCF786
:1038B000C5FE07460022084BFCF71FFE0546FCF735
:1038C000D0FE83465846BDE8F88F000084012142AF
:1038D0000000214200004D400000144000BFFEE700
:1038E0000FB4054B10B503A9044A029800F0A4F9DF
:1038F00010BC5DF814FB0000E544000864000020E3
:103900000FB41CB50246002007AC00290BD0491E9D
:10391000CDE90021054B6A462146069800F08CF956
:10392000009A002111701CBC5DF814FB674300086D
:103930000FB4084B10B504A902AA039800F07CF953
:10394000044602A9002000F019FD204610BC5DF8D5
:1039500014FB00007D430008490050EAC12018BF55
:1039600004204A0D18BF40F0010040F2FF72B2EB94
:10397000515F08BF40F00200012808BF05207047D2
:103980002DE9F0414F1E00EBC7010446D1E90001CB
:1039900015461E4637F006020DD02A463346FCF780
:1039A0003AFD7F1E04EBC703D3E90023FDF70AF8B5
:1039B00037F00602F1D1022F25D0042F13D0062FA5
:1039C00018BFBDE8F0812A463346FCF724FDD4E950
:1039D0000A23FCF7F7FF2A463346FCF71CFDD4E91F
:1039E0000823FCF7EFFF2A463346FCF714FDD4E921
:1039F0000623FCF7E7FF2A463346FCF70CFDD4E923
:103A00000423FCF7DFFF2A463346FCF704FDD4E924
:103A10000223FCF7D7FF2A463346FCF7FCFCD4E927
:103A20000023BDE8F041FCF7CDBF000000221346A3
:103A300010460149FCF761BD0000F03FFCF7C2BF32
:103A40000022134610461146FCF757BD40F20132E2
:103A500000204FF0E041FDF75CB80000024A002072
:103A60001107FDF756B8000001FDFFFF014800688F
:103A7000704700008000002002E008C8121F08C143
:103A8000002AFAD170477047002001E001C1121FDF
:103A9000002AFBD170470000014908607047000010
:103AA000800000202DE9FF5F82B00021DDE90430B5
:103AB000020DDDF840B0034318D044F61050A2F2D6
:103AC000FF3242431514119801281FD0A5EB0B00BB
:103AD000401C5FEA000A4FF000064E4FDFF83891B5
:103AE000B046504615D5CAF1000413E011980124E0
:103AF0004AA3012801D16FEA0B010298119AC0E98B
:103B00000031C0E9024206B0BDE8F09FCBF10000F1
:103B1000DFE704460021404A491842EB0450CDE952
:103B2000001012E0E00707D032463B4640464946C7
:103B3000FCF771FC8046894632463B4610461946E2
:103B4000FCF769FC06460F466410002CEAD1DDE95B
:103B50000401DDE90023BAF1000F06DAFCF75BFC93
:103B600042464B46FCF757FC05E0FCF7C6FC4246D4
:103B70004B46FCF7C2FC04460E460022284BFDF7DC
:103B800009F803D84FF0FF30014607E00022254B2B
:103B900020463146FCF716FFFCF7E3FF102409E04E
:103BA000002C0ADB0A220023FCF7A2FD039B303223
:103BB0001A55641E50EA0102F2D1641C039AC4F142
:103BC00011031444119A012A03D0012208430DD194
:103BD0000AE0084304D000204FF0110B119072E767
:103BE000A3EB0B056D1E0DE05B4504DD4FF00002FD
:103BF00005F1010504E003DA4FF00002A5F101052B
:103C0000002AECD002981199C0E90231C0E90045C0
:103C100079E70000000014400000F03F3000000091
:103C20000000F0430000E03F30380A2801D20120B4
:103C300070470020704700002DE9FF4F95B09B466C
:103C40008946064600250FE2252877D1002427461D
:103C5000F84A0121059400E0044316F8013F203B97
:103C600001FA03F01042F7D130782A2811D06FF012
:103C70002F033078A0F13002092A16D8059A44F0B3
:103C8000020402EB820203EB42021044761C059010
:103C9000EFE759F8042B0592002A03DA504244F466
:103CA0000054059044F00204761C30782E2816D17A
:103CB00016F8010F44F004042A280DD06FF02F02EB
:103CC0003078A0F13003092B09D807EB870302EB0A
:103CD0004303C718761CF3E759F8047B761C307849
:103CE0006C280FD006DC4C2817D068280DD06A2825
:103CF00014D104E0742810D07A280FD10DE044F4D8
:103D000000140AE044F4801401E044F44014727892
:103D1000824202D104F58014761C761C3078662825
:103D20000BD013DC582877D009DC002875D0452843
:103D3000F6D04628F4D047281AD19DE118E0632830
:103D400035D0642879D0652812D195E1702873D0D8
:103D500008DC6728F1D069286FD06E280DD06F2855
:103D600006D1B5E073282CD0752875D0782874D08A
:103D70005A46179990476D1C75E1C4F3025002280A
:103D800009D003280DD0D9F8001004280DD00D60FB
:103D900009F1040967E1D9F80010EA17C1E90052F6
:103DA000F6E7D9F800100D80F2E70D70F0E719F88A
:103DB000041B8DF8001000208DF80100EA46012058
:103DC00003E059F804AB4FF0FF3061074FF00001FA
:103DD00002D40DE008F101018846B9420FDA8045AE
:103DE000F8DB1AF808100029F4D108E008F1010105
:103DF00088468142FADB1AF808100029F6D10598A6
:103E00005B46A0EB080721463846179A00F094FA63
:103E1000284400EB080507E04DE029E10DE01AF821
:103E2000010B5A4617999047B8F10108F7D25B4643
:103E300021463846179A13E142E00A220092C4F361
:103E400002524FF0000A022A08D059F804CB032A84
:103E50004FEAEC710AD00DE029E02AE009F10701F0
:103E600021F00702F2E802C1914609E00FFA8CFC4A
:103E70004FEAEC71042A03D14FFA8CFC4FEAEC7143
:103E8000002907DA0A460021DCF1000C61EB02018F
:103E90002D2202E0220504D52B228DF804200122D8
:103EA00003E0E20701D02022F7E7904659E00A211B
:103EB00002E010220DE010214FF0000A00910BE00B
:103EC00010224FF0000A44F004040827009203E097
:103ED00008224FF0000A0092C4F30252022A05D0D1
:103EE00059F804CB0021032A08D009E009F10701A1
:103EF00021F00702F2E802C1914605E01FFA8CFCAE
:103F0000042A01D10CF0FF0C4FF00008220728D53D
:103F1000702806D0009B83F0100353EA0A0305D0F3
:103F20000EE040228DF80420012208E05CEA010244
:103F300006D030228DF804208DF80500022290462C
:103F4000009B83F0080353EA0A030AD15CEA0102EA
:103F500001D1620705D530228DF804204FF0010809
:103F60007F1E582804D034A003900EA802900DE0C4
:103F700036A0F9E753466046009AFCF7B9FB844641
:103F80000398825C0298401E029002705CEA010075
:103F9000F0D1029806A9081A00F1200A600702D59C
:103FA00024F4803400E00127574502DDA7EB0A0026
:103FB00000E0002000EB0A01009005984144401AFF
:103FC0000590E00306D45B462146179A059800F059
:103FD000B3F90544002706E001A85A46C05D1799C9
:103FE00090476D1C7F1C4745F6DBE0030CD55B4614
:103FF0002146179A059800F09FF9054404E0302007
:104000005A46179990476D1C0099481E0090002948
:10401000F5DC08E0029802995A460078491C0291A2
:10402000179990476D1CBAF10001AAF1010AF1DC61
:1040300065E100000928010030313233343536376C
:1040400038396162636465660000000030313233E4
:104050003435363738394142434445460000000084
:1040600000F058F90544761C307800287FF4ECAD58
:1040700019B02846BDE8F08F620700D4062709F181
:10408000070222F0070CFCE80223E14603F0004897
:104090005FEA080C02D00FF2702C0DE05FEA045CBE
:1040A00002D50FF2682C07E05FEAC47C02D00FF261
:1040B000602C01E0AFF2700C4FF0FF3823F00043AA
:1040C000CDF850C065280CD006DC452809D046281C
:1040D0001DD047283DD13DE0662818D067287ED105
:1040E00038E00021112F01DB112000E0781CCDE920
:1040F000000106A90EA8FFF7D5FCDDE90F010E9A15
:1041000003910021009207F1010A04914DE04FF064
:1041100000400097CDE9011006A90EA8FFF7C2FCE8
:10412000DDE90F0203920E9B11990022DDF80CA02D
:104130000093049211B9791C00EB010AB7EB0A0055
:1041400004D4C0F1FF3007F1010A0490AAEB070084
:10415000019044E0012F00DA01270021112F01DD39
:10416000112000E03846CDE9000106A90EA8FFF7AE
:1041700099FCDDE90F010E9A039100210491009250
:10418000BA4621070CD40399514500DA8A46BAF1A0
:10419000010F05DD009AAAF10101515C302908D018
:1041A000B84202DA10F1040F06DA0121CDE901105C
:1041B00015E0AAF10101E9E7002805DC04990144B2
:1041C0000491AAEB000102E0411C514500DD8A4642
:1041D0000499401A401C01904FF0004002902007C3
:1041E00004D40198504501DBCDF8048000208DF8FF
:1041F0004F0002980DF14F07B0F1004F25D02B2052
:104200000E9002984FF0020800280CDA404202900B
:104210002D200E9007E00A210298FCF753FA303166
:10422000029007F8011DB8F10001A8F10108F2DCC5
:1042300002980028EFD1791E0E980870307800F0AF
:10424000200040F0450007F8020D12A8C01B00F145
:1042500007081498007800B1012000EB0A010198CA
:1042600001EBE07105984144401A401E0590E003BF
:1042700006D45B462146179A059800F05DF8054480
:104280001498007818B15A46179990476D1CE003AE
:1042900024D55B462146179A059800F04DF8054451
:1042A0001CE00498002807DBDDE90301884203DDF8
:1042B0000098405C179901E0179930205A469047C2
:1042C000049805F10105401C04900198401E0190DE
:1042D00004D12E205A46179990476D1CBAF100015F
:1042E000AAF1010ADDDC05E017F8010B5A4617991F
:1042F00090476D1CB8F10001A8F10108F4DC5B46A1
:104300002146179A0598ABE62D0000002B0000000F
:10431000200000002DE9F041044600251E46174606
:10432000880404D405E039462020B0476D1C641E83
:10433000F9D52846BDE8F0812DE9F0410446002575
:104340001E469046C80301D5302700E02027880488
:1043500004D505E041463846B0476D1C641EF9D5CA
:104360002846BDE8F0814A68002A06D00A68531C36
:104370000B6010704868401E486070470A68531C04
:104380000B601070704730B583B00446FFF76EFBCA
:1043900005460020CDE90000024621466846FCF7AC
:1043A0004AFA2846FFF778FBDDE9000103B030BD8B
:1043B00001480068704700005C0000200248006867
:1043C000401C0149086070475C00002010B504469D
:1043D0006FF00400FFF71AF8E11704EB5171C1F315
:1043E000C701114A11701046007800EB4001C1EB83
:1043F000C0104FF6FF7101EAC0000C49088042F27C
:1044000027304FF0E02148610020886108460069AC
:1044100040F0020008610846006940F001000861B0
:1044200000200349086010BD580000205A000020F9
:104430005C00002010B501464FF0E0231A691B69AB
:1044400023F002034FF0E02423610F4B1B884B4302
:1044500063610023A36123461B6943F001032361C9
:1044600000BF4FF0E023186900F001031BB100F416
:104470008033002BF5D04FF0E0231A6100234FF07A
:10448000E024A36110BD00005A00002010B50146D1
:104490004FF0E0231A691B6923F002034FF0E02478
:1044A00023610F4B1B784B4363610023A3612346B9
:1044B0001B6943F00103236100BF4FF0E02318693B
:1044C00000F001031BB100F48033002BF5D04FF056
:1044D000E0231A6100234FF0E024A36110BD000027
:1044E0005800002000BF054A128802F04002002A4E
:1044F000F9D0C2B2014B1B1D1A8070470038014031
:1045000008B5FEF79BFF4820FFF760FFFCF7BCFDF6
:10451000FDF7CEFDFCF73EFF6420FFF78BFFFDF7B4
:1045200027F8FDF77FFFFEF717F8FEF70FF940F2C7
:10453000E7314720FEF7ABFFB1A0FFF7D1F95EE10D
:10454000FFF736FF0446B0480068201A642803D9F4
:10455000FEF726FEAC480460AC4805781DB3AC48B5
:104560000078012802D003281CD11AE0012D0CD1BB
:104570000220A74908700120A64908700020A6491A
:1045800008704870A14908700AE00B2D08D103207B
:104590009F4908700120A149087000209B490870BC
:1045A00000E000BF00BF9E48007899490978884222
:1045B0001AD0FEF7CBF896480078994908709448CD
:1045C0000078012804D0022805D0032809D105E08D
:1045D000FEF767FB05E0FEF7B6FB02E0FEF75AFCCC
:1045E00000BF00BFFEF754F989480078012804D0C5
:1045F000022811D003280ED146E0FEF7F7FD06464B
:10460000012E02D1FEF764FD01E0FEF7A9FDFCF7E3
:104610007FFEFCF701FFE7E0FEF70CFE06460027F1
:104620007D4800787F490978884205D17A484078EA
:104630007D490978884208D0012777480078794970
:10464000087075484078784908707848007838B123
:1046500077480078864203D117B97648007880B150
:10466000FEF771FB3046FEF748FBFDF739FE0120EF
:104670006E4908706E48067000206E490870FEF79B
:1046800007F9FCF7C9FEAFE0FEF7F2FD064600278A
:1046900069480078012874D16848007870B9FEF73D
:1046A00055F80820FFF7C6FEFEF728FC01206349F5
:1046B0000870002062490870012734E053480078F0
:1046C000042830D10020514908705E480078012844
:1046D00004D002280DD0032821D115E05A48C08803
:1046E0001730182190FBF1F201FB12005649C880E7
:1046F00015E0554800893B303C2190FBF1F201FB6D
:104700001200514908810AE04F4840893B303C2162
:1047100090FBF1F201FB12004B49488100BF00BF42
:10472000FDF71AFF0127002F5DD0FEF74DFE45482B
:104730000078012804D002280BD003281BD111E0F7
:10474000012010237622194600901E20FEF7FAF869
:1047500011E0012010237622194600903E20FEF73A
:10476000F1F808E0012010237622194600905E201F
:10477000FEF7E8F800BF00BFFEF78AF8002732E036
:10478000FFE700202D4908703048007880B9FDF718
:10479000DDFFFEF77FFBFEF7FDFD3046FEF7F6FA84
:1047A000FEF776F801202949087000202449087096
:1047B0002348007801280BD1FEF76CFBFEF7EAFDD9
:1047C0003046FEF7E3FAFEF763F800201C49087054
:1047D0001F480078864206D03046FEF7D7FAFEF72B
:1047E00057F81B48067000BF00BF1A480068201A1F
:1047F000192803D9FEF74CF81648046000BF9FE65D
:104800005374617274200A00140000203E000020DE
:10481000040000200A000020CC0000200B00002033
:10482000120000201E0000201F0000201C0000209D
:104830001D00002020000020070000202300002091
:104840002200002008000020740000202100002029
:1048500024000020180000202DE9F04D1D460C46D4
:1048600098B0174621F0004123F00043002814BF00
:104870004FF0010C4FF0000C0CEB440CFE4A0CEB1B
:1048800002064FEA620C66452BD33E0018BF012694
:1048900006EB45061644F94A964222D3F84A53EAF3
:1048A000070C02D0944205D148B918B00020114637
:1048B000BDE8F08D002808BF4FF0000C01D04FF08C
:1048C000010C0CEB440212F5001F0AD8002F14BF94
:1048D0004FF0010C4FF0000C0CEB450212F5001FDD
:1048E00007D918B03A462B462146BDE8F04DFFF7F0
:1048F000A5B80022DFF88CA3002CB8BF534526DAF8
:10490000DFF884C36345A8BF022220DADFF870C352
:104910009C451CDCDFF874C30CEB235CBCF1140F6A
:1049200008DDCCF1340627FA06FC0CFA06F6BE4286
:104930000DD108E05FB9CCF1140623FA06FC0CFA9D
:1049400006F69E4203D10CF00102C2F1020251EAC6
:10495000000C19D1002D17DA002C18BF022A01D043
:10496000012A07D00220FFF797F818B0BDE8F04DF4
:10497000FFF75CB80220FFF78FF8FFF757F818B081
:1049800081F00041BDE8F08DB7F1000C6CD15345CA
:1049900025D104F1804212F5801201BF00280020C9
:1049A000B74918B008BFBDE8F08DB548884207DCAC
:1049B000002DA1BF6046294618B0BDE8F08D07E084
:1049C000281E05DA80F0004118B06046BDE8F08D81
:1049D000AF497944D1E9000118B0BDE8F08DDFF8A6
:1049E000A0C2634525D1002D1FDA19B1514512D15E
:1049F000D8B909E0002840F0EC82A24A214618B05C
:104A000062F31E01BDE8F08D0020214618B060F36E
:104A10001E01BDE8F08D08DA18B02346BDE8F04D60
:104A2000024600206146FBF768BD18B02146BDE88C
:104A3000F08D514518DAB5F1804F0DD0A5F1005C2D
:104A4000BCF1FF5C10D1B4F1000C0DDB18B0614675
:104A5000BDE8F04D00F0ECBB234618B00246BDE8BF
:104A6000F04D1946FBF7D7BC060024F0004C3BD1B3
:104A7000D9B1514533D1002C06DD002DA1BF002056
:104A8000514618B0BDE8F08D002C01DD002D1BDB78
:104A9000002C13DA002D11DB012A4FF0000014BFA7
:104AA00078497C4918B0BDE8F08D022A18BF002C67
:104AB0000AD0012A08D1002C06DA0AE0002CB8BF7F
:104AC000002D11DA012A04D0002018B00146BDE8FB
:104AD000F08D18B000204FF00041BDE8F08DA1F13D
:104AE0004050B0F17F601AD0012000EBE47050EA32
:104AF000020421D0624C521E4FF0000B104304BF41
:104B00004FF0000B644C654883427CDD644A654885
:104B100093421FDD884217DB002D25DB37E0002C98
:104B200000DA4AB1022A0CBF01204FF0FF3018B062
:104B3000BDE8F04DFCF704B80120FEF7ADFF18B05A
:104B4000BDE8F04DFEF77CBF4D4A8A4202DC002DE5
:104B50000ADC1CE0814202DA002D18DA04E0484B3E
:104B6000994220DD002D12DD0220FEF795FFFEF7B1
:104B70006DFF05460E460022534658462146FBF778
:104B80004AFC18B066F31E012846BDE8F08D0220ED
:104B9000FEF782FFFEF762FF0A46214618B062F375
:104BA0001E01BDE8F08D002230466146FBF7ABFFE9
:104BB00080460E466FF00102FBF7ABFF4FF0553217
:104BC000394BFBF7A3FF42463346FBF724FC002298
:104BD000364BFBF79BFF8246424633460491104614
:104BE0001946FBF718FC5246049BFBF714FC8A4657
:104BF00000904FF0C0422E4B40463146FBF70BFC75
:104C00002C4A2B4B00E027E0CDE9060151460098E5
:104C1000FBF701FC82460191274A284B404631466A
:104C2000FBF7F9FB5246019BFBF76DFF82460B46F3
:104C300002460591DDE90601FBF7C4FEDDE9062326
:104C4000002688463046FBF75EFF5246059BFBF781
:104C50005DFF024600F07EB90020B1F5801F07DA43
:104C6000352230466146FBF754FF06466FF03400AC
:104C700000EB215024E00000FFFF1F00FFFF0F00AA
:104C80000000F03F0000F07F0000404301FCFFFF08
:104C90005A2A00000000F0FF0000F0BF0000E041D1
:104CA0000000F043FFFFEF3F5555D53F0000E03FC8
:104CB0004715F73FFE822B6544DF5DF80BAE543E8F
:104CC000A0F2FF300190C1F3130040F07F6141F08A
:104CD00040510291FE498842D8BF002004DDFD49C1
:104CE0008142C8BF012001DD0D9008E000200D9039
:104CF0000198401C01900298A0F580100290029942
:104D0000F54878440B910D9900EBC100D0E90023E0
:104D10000F9330460A920B99FBF7F5FECDE9060199
:104D2000DDE90A2130460F9BFBF74CFE02460B469D
:104D30000020EA49FBF7E1FB059102460B46009093
:104D4000DDE90601FBF767FB1490E5488A464FF062
:104D5000000878440299006812904FF0005040EA31
:104D600061010D980F9B01EB804000F50021099136
:104D70000A9A1298FBF7C7FE32460B9BFBF7C6FE5A
:104D800042465346FBF747FB0646029140465146D2
:104D9000099B129AFBF73FFBDDE90623FBF7B6FE02
:104DA0003246029BFBF7AFFE059B009AFBF733FBF5
:104DB0000091149A0490534610461946FBF72BFBBA
:104DC00006460246C7480B46029106217844FEF784
:104DD000D7FDCDE90510029B324610461946FBF778
:104DE0001AFBDDE90532FBF716FB05910646534633
:104DF00040461946149AFBF7E5FD009B049AFBF721
:104E00000AFB3246059BFBF7DDFDCDE90510424666
:104E1000534610461946FBF7FEFA0022B24B0291A8
:104E20000A90FBF7CFFDDDE90532FBF7CBFD0E461F
:104E30004246AD4B4046FBF766FE029B0A9AFBF7E3
:104E400062FEDDE90532FBF761FE424602910A90FF
:104E5000334610465146FBF7DEFACDE906015346CC
:104E6000149A02990A98FBF7D6FA8A4602903346BA
:104E7000424600990498FBF7CEFA5346029AFBF794
:104E8000A1FD82460B4602460591DDE90601FBF7CE
:104E900099FDDDE90623002088460646FBF733FE30
:104EA0005246059BFBF732FE824609914FF0604265
:104EB0008E4B30464146FBF7AEFA049006918C4A81
:104EC0008A4B50460999FBF7A6FA82460291894A15
:104ED000894B30464146FBF79EFA5246029BFBF750
:104EE00071FD864B7B440D9A03EBC203D3E900238B
:104EF000FBF768FD0E9007910198FBF721FE0591E5
:104F0000DDE9061382460E9A0498FBF75BFD7C4AA6
:104F10007A440D9B02EBC303D3E900230093029272
:104F2000FBF750FD5246059BFBF74CFD00268846DB
:104F300052463046059BFBF7E6FD009B029AFBF7C5
:104F4000E2FD069B049AFBF7DEFD079B0E9AFBF73A
:104F5000DDFD024600200B46029038462946FBF74D
:104F60005AFA824601912B4638461946029AFBF7B7
:104F7000CAFD32464346FBF74EFA5246019BFBF709
:104F800021FD07468A463246434629460298FBF7EA
:104F900042FA05460E463A465346FBF713FD594A78
:104FA0008846914221DBA8EB020353EA000210D1AC
:104FB0002A463346FBF7A7FDCDE90401524A534B7D
:104FC00038465146FBF7FEFCDDE90423FBF7E2FD22
:104FD00021D20220FEF760FDFEF738FD0A46214689
:104FE00018B062F31E01BDE8F08D494B28F0004275
:104FF0009A4210D3474A08EB020353EA00027FF4B7
:10500000C6AD2A463346FBF77EFD3A465346FBF7CC
:10501000C1FD7FF6BCAD0022019228F000403E4960
:105020003E4A01EB2051824223DA481C4FF48011A2
:1050300021FA00F040443A4AC0F30A517A44394B0D
:10504000A1F2FF31CB4020EA0303C0F3130040F488
:105050008010C1F11401C84012680190B8F1000F2E
:10506000BCBF4042019028463146FBF74CFD054647
:105070000E462A46334638465146FBF7A3FC4FF00E
:1050800000084246284B40460591FBF7C4F9CDE99C
:105090000601264A264B40460599FBF7BCF90091CC
:1050A00002902A46334640460599FBF72CFD3A46C6
:1050B0005346FBF72BFD1F4A1F4BFBF7ACF9009B38
:1050C000029AFBF77FFC0746884602460B4635E00E
:1050D0008E9803007AB60B000A2600000000F03F0D
:1050E000DA260000702500000000084009C7EE3FE6
:1050F000FD033ADCF5015B14E02F3EBE48240000BE
:105100000C24000000009040FE822B654715973C60
:1051100000CC904000346F3F01FCFFFF0000E03FF7
:10512000F0230000FFFF0F00432EE63F396CA80C70
:10513000615C20BEEF39FAFE422EE63FDDE9060152
:10514000FBF740FCDDE9062305460E46FBF7DBFCDA
:105150003A464346FBF7DAFC0F462A4633460090B0
:1051600010461946FBF757F9824602462E488846F4
:105170000B4605217844FEF703FC52464346FBF7F5
:105180004AF92A463346FBF7C1FC80468A463B462D
:1051900028463146009AFBF73EF93B46009AFBF75A
:1051A00011FC0691009000224FF08043404651468A
:1051B000FBF7A9FC0F460C90424653462846314661
:1051C000FBF729F93B460C9AFBF797F9069B009AE7
:1051D000FBF799FC2A463346FBF795FC0022134B5C
:1051E000FBF794FC054601980E4601EB00510815AB
:1051F000002810DC28463146019AFBF78AFCFEF7AE
:10520000ABFB042808BFFEF729FC28463146019A6B
:10521000FBF77FFC05460B4618B02A465846214648
:10522000BDE8F04DFBF7F7B8F82100000000F03FB3
:105230002DE9F04106460F46FBF7C8FE041E0D4659
:1052400018BF0120284320F00040C0F17F6000F12A
:10525000E040C00F0ED0301C18BF0120384320F0B2
:105260000040C0F17F6000F1E040C00F04BF0120AA
:10527000FEF712FC20462946BDE8F0810000000040
:1052800000000000002F00000000070007000014CD
:105290007F147F1400242A7F2A12006264081323DB
:1052A00000364955225000000503000000001C2272
:1052B0004100000041221C000014083E08140008B0
:1052C000083E0808000000A0600000080808080860
:1052D000000060600000002010080402003E5149F8
:1052E000453E0000427F4000004261514946002196
:1052F00041454B31001814127F10002745454539B0
:10530000003C4A494930000171090503003649490A
:10531000493600064949291E0000363600000000C3
:10532000563600000008142241000014141414140E
:1053300000004122140800020151090600324959B7
:10534000513E007C1211127C007F49494936003ED3
:1053500041414122007F4141221C007F494949418E
:10536000007F09090901003E4149497A007F080888
:10537000087F0000417F4100002040413F01007F45
:1053800008142241007F40404040007F020C027F11
:10539000007F0408107F003E4141413E007F090923
:1053A0000906003E4151215E007F09192946004649
:1053B000494949310001017F0101003F4040403F20
:1053C000001F2040201F003F4038403F006314086A
:1053D0001463000708700807006151494543000045
:1053E0007F41410000552A552A55000041417F0068
:1053F000000402010204004040404040000001025D
:105400000400002054545478007F48444438003845
:105410004444442000384444487F003854545418CD
:1054200000087E0901020018A4A4A47C007F0804DF
:1054300004780000447D4000004080847D00007FAF
:10544000102844000000417F4000007C04180478CC
:10545000007C0804047800384444443800FC2424C8
:1054600024180018242418FC007C080404080048B0
:105470005454542000043F444020003C4040207CD1
:10548000001C2040201C003C4030403C00442810C0
:105490002844001CA0A0A07C004464544C44141474
:1054A00014141414000000000000000000000000AC
:1054B0000000FC000000000002000000000C020CD4
:1054C000020000000000000090D0BCD0BC9000039F
:1054D000000300001824FE448C00030207020100B0
:1054E0001824D8B04C80000300010201C038E43811
:1054F000E0000102020102020806000000000000B4
:1055000000000000000000F8040200000001020496
:10551000000204F800000004020100009060F8603E
:1055200090000000010000002020FC20200000006E
:10553000010000000000000000000806000000005C
:1055400020202020200000000000000000000000BB
:1055500000000002000000000080601C0200040344
:1055600000000000F8040404F80001020202010037
:105570000008FC000000000203020000188444241C
:10558000180003020202020008042424D8000102C9
:105590000202010040B088FC80000000000302000D
:1055A0003C242424C400010202020100F824242C1B
:1055B000C0000102020201000C04E41C040000000F
:1055C00003000000D8242424D800010202020100B4
:1055D00038444444F80000030202010000001000B7
:1055E0000000000002000000000020000000000099
:1055F00006000000002050880402000000000102A4
:10560000909090909000000000000000000204883C
:1056100050200002010000001804C42418000000FB
:1056200002000000F804E494F80001020202020003
:1056300000E09CF0800002030000030204FC24242C
:10564000D800020302020100F80404040C00010265
:105650000202010004FC0404F8000203020201003B
:1056600004FC24740C0002030202030004FC2474F2
:105670000C00020302000000F0080444CC400001CA
:105680000202010004FC2020FC04020300000302CB
:105690000404FC040400020203020200000404FCEF
:1056A000040406040403000004FC24D00C040203D8
:1056B0000200030204FC04000000020302020203D1
:1056C000FC3CC03CFC0003000300030004FC30C4AD
:1056D000FC04020302000300F8040404F8000102C1
:1056E0000202010004FC242418000203020000004E
:1056F000F8848404F80001020207050004FC246415
:105700009800020302000302182424448C000302C0
:10571000020201000C04FC040C0000020302000061
:1057200004FC0000FC04000102020100047C80E093
:105730001C040000030000001CE03CE01C0000030F
:1057400000030000049C609C0400020300030200AC
:10575000041CE01C04000002030200000C84641C12
:1057600004000203020203000000FE020200000027
:1057700007040400000E30C0000000000001020019
:10578000000202FE000000040407000000040204FE
:1057900000000000000000000000000000000808F9
:1057A00008080808000002000000000000000000D7
:1057B0000040A0A0C00000010202030204FC20205F
:1057C000C00000030202010000C0202060000001B0
:1057D0000202020000C02024FC00000102020302B9
:1057E00000C0A0A0C0000001020202000020F824B6
:1057F00024040002030202000040A0A06020000771
:105800000A0A0A0404FC2020C0000203020003026A
:105810000020E4000000000203020000000020E479
:10582000000008080807000004FC80E020200203B4
:10583000020003020404FC00000002020302020052
:10584000E020E020C00003000300030020E020204F
:10585000C00002030200030200C02020C0000001BB
:105860000202010020E02020C000080F0A0201000F
:1058700000C02020E0000001020A0F0820E04020C4
:1058800020000203020000000060A0A0200000022F
:10589000020203000020F8200000000001020200C4
:1058A00020E00020E00000010202030220E020804E
:1058B00060200000030100006080E08060000003C1
:1058C000000300002060806020000203000302004B
:1058D00020E0208060200808070100000020A06070
:1058E0002000000203020200000020DE020000008F
:1058F00000070400000000FF00000000000F00008F
:105900000002DE2000000004070000000201020483
:105910000402000000000000000000000000000081
:105920000000000000000000000000F8000000007F
:10593000000000333000000000100C06100C0600C0
:10594000000000000000000040C07840C078400027
:10595000043F04043F040400007088FC0830000089
:10596000001820FF211E0000F008F000E0180000E1
:1059700000211C031E211E0000F00888700000009A
:105980001E2123241927211010160E0000000000EC
:105990000000000000000000000000E01804020009
:1059A000000000071820400000020418E00000007A
:1059B0000040201807000000404080F08040400078
:1059C0000202010F01020200000000F000000000CE
:1059D0000101011F010101000000000000000000A2
:1059E00080B0700000000000000000000000000017
:1059F00000010101010101010000000000000000A0
:105A0000003030000000000000000000806018043A
:105A1000006018060100000000E010080810E00017
:105A2000000F102020100F00001010F800000000E0
:105A30000020203F20200000007008080888700027
:105A400000302824222130000030088888483000A7
:105A50000018202020110E000000C02010F80000C7
:105A600000070424243F240000F808888808080060
:105A70000019212020110E0000E010888818000075
:105A8000000F112020110E0000380808C838080047
:105A90000000003F000000000070880808887000C7
:105AA000001C222121221C0000E010080810E00048
:105AB0000000312222110F00000000C0C0000000D1
:105AC00000000030300000000000008000000000F6
:105AD00000008060000000000000804020100800EE
